{
  "_format": "hh-sol-artifact-1",
  "contractName": "BuyMyRoom",
  "sourceName": "contracts/BuyMyRoom.sol",
  "abi": [
    {
      "inputs": [],
      "stateMutability": "nonpayable",
      "type": "constructor"
    },
    {
      "anonymous": false,
      "inputs": [
        {
          "indexed": false,
          "internalType": "uint256",
          "name": "tokenId",
          "type": "uint256"
        },
        {
          "indexed": false,
          "internalType": "uint256",
          "name": "price",
          "type": "uint256"
        },
        {
          "indexed": false,
          "internalType": "address",
          "name": "owner",
          "type": "address"
        }
      ],
      "name": "HouseListed",
      "type": "event"
    },
    {
      "inputs": [
        {
          "internalType": "uint256",
          "name": "houseID",
          "type": "uint256"
        }
      ],
      "name": "buyHouseInErc20",
      "outputs": [],
      "stateMutability": "nonpayable",
      "type": "function"
    },
    {
      "inputs": [
        {
          "internalType": "uint256",
          "name": "houseID",
          "type": "uint256"
        }
      ],
      "name": "buyHouseInEther",
      "outputs": [],
      "stateMutability": "payable",
      "type": "function"
    },
    {
      "inputs": [
        {
          "internalType": "uint256",
          "name": "houseID",
          "type": "uint256"
        }
      ],
      "name": "calculateFeeInErc20",
      "outputs": [
        {
          "internalType": "uint256",
          "name": "",
          "type": "uint256"
        }
      ],
      "stateMutability": "view",
      "type": "function"
    },
    {
      "inputs": [
        {
          "internalType": "uint256",
          "name": "houseID",
          "type": "uint256"
        }
      ],
      "name": "calculateFeeInEther",
      "outputs": [
        {
          "internalType": "uint256",
          "name": "",
          "type": "uint256"
        }
      ],
      "stateMutability": "view",
      "type": "function"
    },
    {
      "inputs": [],
      "name": "changeEth2Erc20",
      "outputs": [],
      "stateMutability": "payable",
      "type": "function"
    },
    {
      "inputs": [
        {
          "internalType": "uint256",
          "name": "houseID",
          "type": "uint256"
        },
        {
          "internalType": "uint256",
          "name": "price",
          "type": "uint256"
        }
      ],
      "name": "changeHousePrice",
      "outputs": [],
      "stateMutability": "nonpayable",
      "type": "function"
    },
    {
      "inputs": [
        {
          "internalType": "uint256",
          "name": "houseID",
          "type": "uint256"
        }
      ],
      "name": "changeHouseState",
      "outputs": [],
      "stateMutability": "nonpayable",
      "type": "function"
    },
    {
      "inputs": [],
      "name": "ethToErc20",
      "outputs": [
        {
          "internalType": "uint256",
          "name": "",
          "type": "uint256"
        }
      ],
      "stateMutability": "view",
      "type": "function"
    },
    {
      "inputs": [],
      "name": "feePercentage",
      "outputs": [
        {
          "internalType": "uint256",
          "name": "",
          "type": "uint256"
        }
      ],
      "stateMutability": "view",
      "type": "function"
    },
    {
      "inputs": [],
      "name": "getHouses",
      "outputs": [
        {
          "components": [
            {
              "internalType": "address",
              "name": "owner",
              "type": "address"
            },
            {
              "internalType": "uint256",
              "name": "listedTimestamp",
              "type": "uint256"
            },
            {
              "internalType": "uint256",
              "name": "houseID",
              "type": "uint256"
            },
            {
              "internalType": "bool",
              "name": "isListed",
              "type": "bool"
            },
            {
              "internalType": "uint256",
              "name": "price",
              "type": "uint256"
            },
            {
              "internalType": "uint256",
              "name": "ethPrice",
              "type": "uint256"
            },
            {
              "internalType": "uint256",
              "name": "erc20Price",
              "type": "uint256"
            }
          ],
          "internalType": "struct BuyMyRoom.House[]",
          "name": "",
          "type": "tuple[]"
        }
      ],
      "stateMutability": "view",
      "type": "function"
    },
    {
      "inputs": [],
      "name": "helloworld",
      "outputs": [
        {
          "internalType": "string",
          "name": "",
          "type": "string"
        }
      ],
      "stateMutability": "pure",
      "type": "function"
    },
    {
      "inputs": [],
      "name": "houseNum",
      "outputs": [
        {
          "internalType": "uint256",
          "name": "",
          "type": "uint256"
        }
      ],
      "stateMutability": "view",
      "type": "function"
    },
    {
      "inputs": [
        {
          "internalType": "uint256",
          "name": "",
          "type": "uint256"
        }
      ],
      "name": "houses",
      "outputs": [
        {
          "internalType": "address",
          "name": "owner",
          "type": "address"
        },
        {
          "internalType": "uint256",
          "name": "listedTimestamp",
          "type": "uint256"
        },
        {
          "internalType": "uint256",
          "name": "houseID",
          "type": "uint256"
        },
        {
          "internalType": "bool",
          "name": "isListed",
          "type": "bool"
        },
        {
          "internalType": "uint256",
          "name": "price",
          "type": "uint256"
        },
        {
          "internalType": "uint256",
          "name": "ethPrice",
          "type": "uint256"
        },
        {
          "internalType": "uint256",
          "name": "erc20Price",
          "type": "uint256"
        }
      ],
      "stateMutability": "view",
      "type": "function"
    },
    {
      "inputs": [],
      "name": "manager",
      "outputs": [
        {
          "internalType": "address",
          "name": "",
          "type": "address"
        }
      ],
      "stateMutability": "view",
      "type": "function"
    },
    {
      "inputs": [],
      "name": "myERC20",
      "outputs": [
        {
          "internalType": "contract MyERC20",
          "name": "",
          "type": "address"
        }
      ],
      "stateMutability": "view",
      "type": "function"
    },
    {
      "inputs": [],
      "name": "myERC721",
      "outputs": [
        {
          "internalType": "contract MyERC721",
          "name": "",
          "type": "address"
        }
      ],
      "stateMutability": "view",
      "type": "function"
    }
  ],
  "bytecode": "0x608060405260026001556004600255600a6003553480156200002057600080fd5b5033600460006101000a81548173ffffffffffffffffffffffffffffffffffffffff021916908373ffffffffffffffffffffffffffffffffffffffff160217905550604051620000709062000367565b6200007b9062000434565b604051809103906000f08015801562000098573d6000803e3d6000fd5b50600560006101000a81548173ffffffffffffffffffffffffffffffffffffffff021916908373ffffffffffffffffffffffffffffffffffffffff160217905550604051620000e79062000375565b620000f2906200050b565b604051809103906000f0801580156200010f573d6000803e3d6000fd5b50600660006101000a81548173ffffffffffffffffffffffffffffffffffffffff021916908373ffffffffffffffffffffffffffffffffffffffff16021790555060005b600254811015620003605760006040518060e00160405280600460009054906101000a900473ffffffffffffffffffffffffffffffffffffffff1673ffffffffffffffffffffffffffffffffffffffff16815260200142815260200183815260200160001515815260200160008152602001600081526020016000815250908060018154018082558091505060019003906000526020600020906007020160009091909190915060008201518160000160006101000a81548173ffffffffffffffffffffffffffffffffffffffff021916908373ffffffffffffffffffffffffffffffffffffffff160217905550602082015181600101556040820151816002015560608201518160030160006101000a81548160ff0219169083151502179055506080820151816004015560a0820151816005015560c082015181600601555050600660009054906101000a900473ffffffffffffffffffffffffffffffffffffffff1673ffffffffffffffffffffffffffffffffffffffff1663a5864b51600460009054906101000a900473ffffffffffffffffffffffffffffffffffffffff16836040518363ffffffff1660e01b815260040162000316929190620005a2565b600060405180830381600087803b1580156200033157600080fd5b505af115801562000346573d6000803e3d6000fd5b5050505080806200035790620005fe565b91505062000153565b506200064b565b6114cd806200292083390190565b61252f8062003ded83390190565b600082825260208201905092915050565b7f5a4a55546f6b656e000000000000000000000000000000000000000000000000600082015250565b6000620003cc60088362000383565b9150620003d98262000394565b602082019050919050565b7f5a4a55546f6b656e53796d626f6c000000000000000000000000000000000000600082015250565b60006200041c600e8362000383565b91506200042982620003e4565b602082019050919050565b600060408201905081810360008301526200044f81620003bd565b9050818103602083015262000464816200040d565b9050919050565b7f486f757365000000000000000000000000000000000000000000000000000000600082015250565b6000620004a360058362000383565b9150620004b0826200046b565b602082019050919050565b7f486f75736553796d626f6c000000000000000000000000000000000000000000600082015250565b6000620004f3600b8362000383565b91506200050082620004bb565b602082019050919050565b60006040820190508181036000830152620005268162000494565b905081810360208301526200053b81620004e4565b9050919050565b600073ffffffffffffffffffffffffffffffffffffffff82169050919050565b60006200056f8262000542565b9050919050565b620005818162000562565b82525050565b6000819050919050565b6200059c8162000587565b82525050565b6000604082019050620005b9600083018562000576565b620005c8602083018462000591565b9392505050565b7f4e487b7100000000000000000000000000000000000000000000000000000000600052601160045260246000fd5b60006200060b8262000587565b91507fffffffffffffffffffffffffffffffffffffffffffffffffffffffffffffffff820362000640576200063f620005cf565b5b600182019050919050565b6122c5806200065b6000396000f3fe6080604052600436106100f35760003560e01c80639e31a59b1161008a578063aeda852f11610059578063aeda852f146102fb578063f450960c1461033e578063f60afecd1461035a578063fd5f33ec14610383576100f3565b80639e31a59b14610253578063a001ecdd1461027c578063a25ccb52146102a7578063a68f31d0146102d0576100f3565b806365f6a187116100c657806365f6a187146101955780636d3739c4146101c057806370e62b1b146101eb5780638f334e8d14610228576100f3565b80632e0fb14a146100f85780632f2f4859146101355780633e14927614610160578063481c6a751461016a575b600080fd5b34801561010457600080fd5b5061011f600480360381019061011a9190611881565b6103ae565b60405161012c91906118bd565b60405180910390f35b34801561014157600080fd5b5061014a610431565b6040516101579190611968565b60405180910390f35b61016861046e565b005b34801561017657600080fd5b5061017f6105e1565b60405161018c91906119cb565b60405180910390f35b3480156101a157600080fd5b506101aa610607565b6040516101b791906118bd565b60405180910390f35b3480156101cc57600080fd5b506101d561060d565b6040516101e29190611a45565b60405180910390f35b3480156101f757600080fd5b50610212600480360381019061020d9190611881565b610633565b60405161021f91906118bd565b60405180910390f35b34801561023457600080fd5b5061023d6106b6565b60405161024a9190611a81565b60405180910390f35b34801561025f57600080fd5b5061027a60048036038101906102759190611881565b6106dc565b005b34801561028857600080fd5b50610291610db1565b60405161029e91906118bd565b60405180910390f35b3480156102b357600080fd5b506102ce60048036038101906102c99190611a9c565b610db7565b005b3480156102dc57600080fd5b506102e5610f98565b6040516102f291906118bd565b60405180910390f35b34801561030757600080fd5b50610322600480360381019061031d9190611881565b610f9e565b6040516103359796959493929190611af7565b60405180910390f35b61035860048036038101906103539190611881565b61101d565b005b34801561036657600080fd5b50610381600480360381019061037c9190611881565b6115a5565b005b34801561038f57600080fd5b50610398611744565b6040516103a59190611cd0565b60405180910390f35b60006064600083815481106103c6576103c5611cf2565b5b906000526020600020906007020160010154426103e39190611d50565b600354600085815481106103fa576103f9611cf2565b5b9060005260206000209060070201600601546104169190611d84565b6104209190611dc6565b61042a9190611e29565b9050919050565b60606040518060400160405280600b81526020017f68656c6c6f20776f726c64000000000000000000000000000000000000000000815250905090565b60006001543461047e9190611d84565b9050600560009054906101000a900473ffffffffffffffffffffffffffffffffffffffff1673ffffffffffffffffffffffffffffffffffffffff1663b23e47b333836040518363ffffffff1660e01b81526004016104dd929190611e5a565b600060405180830381600087803b1580156104f757600080fd5b505af115801561050b573d6000803e3d6000fd5b505050506000600460009054906101000a900473ffffffffffffffffffffffffffffffffffffffff1673ffffffffffffffffffffffffffffffffffffffff163460405161055790611eb4565b60006040518083038185875af1925050503d8060008114610594576040519150601f19603f3d011682016040523d82523d6000602084013e610599565b606091505b50509050806105dd576040517f08c379a00000000000000000000000000000000000000000000000000000000081526004016105d490611f15565b60405180910390fd5b5050565b600460009054906101000a900473ffffffffffffffffffffffffffffffffffffffff1681565b60025481565b600560009054906101000a900473ffffffffffffffffffffffffffffffffffffffff1681565b600060646000838154811061064b5761064a611cf2565b5b906000526020600020906007020160010154426106689190611d50565b6003546000858154811061067f5761067e611cf2565b5b90600052602060002090600702016004015461069b9190611d84565b6106a59190611dc6565b6106af9190611e29565b9050919050565b600660009054906101000a900473ffffffffffffffffffffffffffffffffffffffff1681565b600081815481106106f0576106ef611cf2565b5b906000526020600020906007020160030160009054906101000a900460ff1661074e576040517f08c379a000000000000000000000000000000000000000000000000000000000815260040161074590611f81565b60405180910390fd5b3373ffffffffffffffffffffffffffffffffffffffff166000828154811061077957610778611cf2565b5b906000526020600020906007020160000160009054906101000a900473ffffffffffffffffffffffffffffffffffffffff1673ffffffffffffffffffffffffffffffffffffffff1603610801576040517f08c379a00000000000000000000000000000000000000000000000000000000081526004016107f890611fed565b60405180910390fd5b600061080c826103ae565b90506000816000848154811061082557610824611cf2565b5b9060005260206000209060070201600601546108419190611d50565b90506000838154811061085757610856611cf2565b5b906000526020600020906007020160060154600560009054906101000a900473ffffffffffffffffffffffffffffffffffffffff1673ffffffffffffffffffffffffffffffffffffffff166370a08231336040518263ffffffff1660e01b81526004016108c491906119cb565b602060405180830381865afa1580156108e1573d6000803e3d6000fd5b505050506040513d601f19601f820116820180604052508101906109059190612022565b1015610946576040517f08c379a000000000000000000000000000000000000000000000000000000000815260040161093d9061209b565b60405180910390fd5b600560009054906101000a900473ffffffffffffffffffffffffffffffffffffffff1673ffffffffffffffffffffffffffffffffffffffff166323b872dd33306000878154811061099a57610999611cf2565b5b9060005260206000209060070201600601546040518463ffffffff1660e01b81526004016109ca939291906120bb565b6020604051808303816000875af11580156109e9573d6000803e3d6000fd5b505050506040513d601f19601f82011682018060405250810190610a0d919061211e565b50600560009054906101000a900473ffffffffffffffffffffffffffffffffffffffff1673ffffffffffffffffffffffffffffffffffffffff1663a9059cbb600460009054906101000a900473ffffffffffffffffffffffffffffffffffffffff16846040518363ffffffff1660e01b8152600401610a8d929190611e5a565b6020604051808303816000875af1158015610aac573d6000803e3d6000fd5b505050506040513d601f19601f82011682018060405250810190610ad0919061211e565b50600560009054906101000a900473ffffffffffffffffffffffffffffffffffffffff1673ffffffffffffffffffffffffffffffffffffffff1663a9059cbb60008581548110610b2357610b22611cf2565b5b906000526020600020906007020160000160009054906101000a900473ffffffffffffffffffffffffffffffffffffffff16836040518363ffffffff1660e01b8152600401610b73929190611e5a565b6020604051808303816000875af1158015610b92573d6000803e3d6000fd5b505050506040513d601f19601f82011682018060405250810190610bb6919061211e565b50600660009054906101000a900473ffffffffffffffffffffffffffffffffffffffff1673ffffffffffffffffffffffffffffffffffffffff166323b872dd60008581548110610c0957610c08611cf2565b5b906000526020600020906007020160000160009054906101000a900473ffffffffffffffffffffffffffffffffffffffff1633866040518463ffffffff1660e01b8152600401610c5b939291906120bb565b600060405180830381600087803b158015610c7557600080fd5b505af1158015610c89573d6000803e3d6000fd5b505050503360008481548110610ca257610ca1611cf2565b5b906000526020600020906007020160000160006101000a81548173ffffffffffffffffffffffffffffffffffffffff021916908373ffffffffffffffffffffffffffffffffffffffff1602179055506000808481548110610d0657610d05611cf2565b5b906000526020600020906007020160030160006101000a81548160ff0219169083151502179055506000808481548110610d4357610d42611cf2565b5b9060005260206000209060070201600401819055506000808481548110610d6d57610d6c611cf2565b5b9060005260206000209060070201600501819055506000808481548110610d9757610d96611cf2565b5b906000526020600020906007020160060181905550505050565b60035481565b3373ffffffffffffffffffffffffffffffffffffffff1660008381548110610de257610de1611cf2565b5b906000526020600020906007020160000160009054906101000a900473ffffffffffffffffffffffffffffffffffffffff1673ffffffffffffffffffffffffffffffffffffffff1614610e6a576040517f08c379a0000000000000000000000000000000000000000000000000000000008152600401610e6190612197565b60405180910390fd5b6001151560008381548110610e8257610e81611cf2565b5b906000526020600020906007020160030160009054906101000a900460ff16151514610ee3576040517f08c379a0000000000000000000000000000000000000000000000000000000008152600401610eda90611f81565b60405180910390fd5b670de0b6b3a764000081610ef79190611d84565b60008381548110610f0b57610f0a611cf2565b5b9060005260206000209060070201600401819055508060008381548110610f3557610f34611cf2565b5b906000526020600020906007020160050181905550670de0b6b3a764000060015482610f619190611d84565b610f6b9190611d84565b60008381548110610f7f57610f7e611cf2565b5b9060005260206000209060070201600601819055505050565b60015481565b60008181548110610fae57600080fd5b90600052602060002090600702016000915090508060000160009054906101000a900473ffffffffffffffffffffffffffffffffffffffff16908060010154908060020154908060030160009054906101000a900460ff16908060040154908060050154908060060154905087565b6000818154811061103157611030611cf2565b5b906000526020600020906007020160030160009054906101000a900460ff1661108f576040517f08c379a000000000000000000000000000000000000000000000000000000000815260040161108690611f81565b60405180910390fd5b3373ffffffffffffffffffffffffffffffffffffffff16600082815481106110ba576110b9611cf2565b5b906000526020600020906007020160000160009054906101000a900473ffffffffffffffffffffffffffffffffffffffff1673ffffffffffffffffffffffffffffffffffffffff1603611142576040517f08c379a000000000000000000000000000000000000000000000000000000000815260040161113990611fed565b60405180910390fd5b600061114d82610633565b90506000816000848154811061116657611165611cf2565b5b9060005260206000209060070201600401546111829190611d50565b90506000838154811061119857611197611cf2565b5b9060005260206000209060070201600401543410156111ec576040517f08c379a00000000000000000000000000000000000000000000000000000000081526004016111e390612203565b60405180910390fd5b600080848154811061120157611200611cf2565b5b906000526020600020906007020160000160009054906101000a900473ffffffffffffffffffffffffffffffffffffffff1673ffffffffffffffffffffffffffffffffffffffff168260405161125690611eb4565b60006040518083038185875af1925050503d8060008114611293576040519150601f19603f3d011682016040523d82523d6000602084013e611298565b606091505b50509050806112dc576040517f08c379a00000000000000000000000000000000000000000000000000000000081526004016112d39061226f565b60405180910390fd5b600460009054906101000a900473ffffffffffffffffffffffffffffffffffffffff1673ffffffffffffffffffffffffffffffffffffffff168360405161132290611eb4565b60006040518083038185875af1925050503d806000811461135f576040519150601f19603f3d011682016040523d82523d6000602084013e611364565b606091505b505080915050806113aa576040517f08c379a00000000000000000000000000000000000000000000000000000000081526004016113a190611f15565b60405180910390fd5b600660009054906101000a900473ffffffffffffffffffffffffffffffffffffffff1673ffffffffffffffffffffffffffffffffffffffff166323b872dd600086815481106113fc576113fb611cf2565b5b906000526020600020906007020160000160009054906101000a900473ffffffffffffffffffffffffffffffffffffffff1633876040518463ffffffff1660e01b815260040161144e939291906120bb565b600060405180830381600087803b15801561146857600080fd5b505af115801561147c573d6000803e3d6000fd5b50505050336000858154811061149557611494611cf2565b5b906000526020600020906007020160000160006101000a81548173ffffffffffffffffffffffffffffffffffffffff021916908373ffffffffffffffffffffffffffffffffffffffff16021790555060008085815481106114f9576114f8611cf2565b5b906000526020600020906007020160030160006101000a81548160ff021916908315150217905550600080858154811061153657611535611cf2565b5b90600052602060002090600702016004018190555060008085815481106115605761155f611cf2565b5b906000526020600020906007020160050181905550600080858154811061158a57611589611cf2565b5b90600052602060002090600702016006018190555050505050565b3373ffffffffffffffffffffffffffffffffffffffff16600082815481106115d0576115cf611cf2565b5b906000526020600020906007020160000160009054906101000a900473ffffffffffffffffffffffffffffffffffffffff1673ffffffffffffffffffffffffffffffffffffffff1614611658576040517f08c379a000000000000000000000000000000000000000000000000000000000815260040161164f90612197565b60405180910390fd5b60011515600082815481106116705761166f611cf2565b5b906000526020600020906007020160030160009054906101000a900460ff161515036116d85760008082815481106116ab576116aa611cf2565b5b906000526020600020906007020160030160006101000a81548160ff021916908315150217905550611741565b6001600082815481106116ee576116ed611cf2565b5b906000526020600020906007020160030160006101000a81548160ff021916908315150217905550426000828154811061172b5761172a611cf2565b5b9060005260206000209060070201600101819055505b50565b60606000805480602002602001604051908101604052809291908181526020016000905b8282101561183d57838290600052602060002090600702016040518060e00160405290816000820160009054906101000a900473ffffffffffffffffffffffffffffffffffffffff1673ffffffffffffffffffffffffffffffffffffffff1673ffffffffffffffffffffffffffffffffffffffff16815260200160018201548152602001600282015481526020016003820160009054906101000a900460ff16151515158152602001600482015481526020016005820154815260200160068201548152505081526020019060010190611768565b50505050905090565b600080fd5b6000819050919050565b61185e8161184b565b811461186957600080fd5b50565b60008135905061187b81611855565b92915050565b60006020828403121561189757611896611846565b5b60006118a58482850161186c565b91505092915050565b6118b78161184b565b82525050565b60006020820190506118d260008301846118ae565b92915050565b600081519050919050565b600082825260208201905092915050565b60005b838110156119125780820151818401526020810190506118f7565b60008484015250505050565b6000601f19601f8301169050919050565b600061193a826118d8565b61194481856118e3565b93506119548185602086016118f4565b61195d8161191e565b840191505092915050565b60006020820190508181036000830152611982818461192f565b905092915050565b600073ffffffffffffffffffffffffffffffffffffffff82169050919050565b60006119b58261198a565b9050919050565b6119c5816119aa565b82525050565b60006020820190506119e060008301846119bc565b92915050565b6000819050919050565b6000611a0b611a06611a018461198a565b6119e6565b61198a565b9050919050565b6000611a1d826119f0565b9050919050565b6000611a2f82611a12565b9050919050565b611a3f81611a24565b82525050565b6000602082019050611a5a6000830184611a36565b92915050565b6000611a6b82611a12565b9050919050565b611a7b81611a60565b82525050565b6000602082019050611a966000830184611a72565b92915050565b60008060408385031215611ab357611ab2611846565b5b6000611ac18582860161186c565b9250506020611ad28582860161186c565b9150509250929050565b60008115159050919050565b611af181611adc565b82525050565b600060e082019050611b0c600083018a6119bc565b611b1960208301896118ae565b611b2660408301886118ae565b611b336060830187611ae8565b611b4060808301866118ae565b611b4d60a08301856118ae565b611b5a60c08301846118ae565b98975050505050505050565b600081519050919050565b600082825260208201905092915050565b6000819050602082019050919050565b611b9b816119aa565b82525050565b611baa8161184b565b82525050565b611bb981611adc565b82525050565b60e082016000820151611bd56000850182611b92565b506020820151611be86020850182611ba1565b506040820151611bfb6040850182611ba1565b506060820151611c0e6060850182611bb0565b506080820151611c216080850182611ba1565b5060a0820151611c3460a0850182611ba1565b5060c0820151611c4760c0850182611ba1565b50505050565b6000611c598383611bbf565b60e08301905092915050565b6000602082019050919050565b6000611c7d82611b66565b611c878185611b71565b9350611c9283611b82565b8060005b83811015611cc3578151611caa8882611c4d565b9750611cb583611c65565b925050600181019050611c96565b5085935050505092915050565b60006020820190508181036000830152611cea8184611c72565b905092915050565b7f4e487b7100000000000000000000000000000000000000000000000000000000600052603260045260246000fd5b7f4e487b7100000000000000000000000000000000000000000000000000000000600052601160045260246000fd5b6000611d5b8261184b565b9150611d668361184b565b9250828203905081811115611d7e57611d7d611d21565b5b92915050565b6000611d8f8261184b565b9150611d9a8361184b565b9250828202611da88161184b565b91508282048414831517611dbf57611dbe611d21565b5b5092915050565b6000611dd18261184b565b9150611ddc8361184b565b9250828201905080821115611df457611df3611d21565b5b92915050565b7f4e487b7100000000000000000000000000000000000000000000000000000000600052601260045260246000fd5b6000611e348261184b565b9150611e3f8361184b565b925082611e4f57611e4e611dfa565b5b828204905092915050565b6000604082019050611e6f60008301856119bc565b611e7c60208301846118ae565b9392505050565b600081905092915050565b50565b6000611e9e600083611e83565b9150611ea982611e8e565b600082019050919050565b6000611ebf82611e91565b9150819050919050565b7f5472616e73616374696f6e206661696c656420666f72206d616e616765720000600082015250565b6000611eff601e836118e3565b9150611f0a82611ec9565b602082019050919050565b60006020820190508181036000830152611f2e81611ef2565b9050919050565b7f486f757365206e6f742079657420666f722073616c6500000000000000000000600082015250565b6000611f6b6016836118e3565b9150611f7682611f35565b602082019050919050565b60006020820190508181036000830152611f9a81611f5e565b9050919050565b7f596f752063616e206e6f742062757920796f7572206f776e20686f7573650000600082015250565b6000611fd7601e836118e3565b9150611fe282611fa1565b602082019050919050565b6000602082019050818103600083015261200681611fca565b9050919050565b60008151905061201c81611855565b92915050565b60006020828403121561203857612037611846565b5b60006120468482850161200d565b91505092915050565b7f4e6f7420656e6f75676820746f6b656e2073656e740000000000000000000000600082015250565b60006120856015836118e3565b91506120908261204f565b602082019050919050565b600060208201905081810360008301526120b481612078565b9050919050565b60006060820190506120d060008301866119bc565b6120dd60208301856119bc565b6120ea60408301846118ae565b949350505050565b6120fb81611adc565b811461210657600080fd5b50565b600081519050612118816120f2565b92915050565b60006020828403121561213457612133611846565b5b600061214284828501612109565b91505092915050565b7f596f7520646f6e2774206f776e2074686520686f757365000000000000000000600082015250565b60006121816017836118e3565b915061218c8261214b565b602082019050919050565b600060208201905081810360008301526121b081612174565b9050919050565b7f4e6f7420656e6f7567682065746865722073656e740000000000000000000000600082015250565b60006121ed6015836118e3565b91506121f8826121b7565b602082019050919050565b6000602082019050818103600083015261221c816121e0565b9050919050565b7f5472616e73616374696f6e206661696c656420666f722073656c6c6572000000600082015250565b6000612259601d836118e3565b915061226482612223565b602082019050919050565b600060208201905081810360008301526122888161224c565b905091905056fea2646970667358221220c055c49a7142ab65d91eaf2628bdb9fc46f0f5b420c837e2be7e43ec7869129d64736f6c6343000814003360806040523480156200001157600080fd5b50604051620014cd380380620014cd8339818101604052810190620000379190620001fa565b818181600390816200004a9190620004ca565b5080600490816200005c9190620004ca565b5050505050620005b1565b6000604051905090565b600080fd5b600080fd5b600080fd5b600080fd5b6000601f19601f8301169050919050565b7f4e487b7100000000000000000000000000000000000000000000000000000000600052604160045260246000fd5b620000d08262000085565b810181811067ffffffffffffffff82111715620000f257620000f162000096565b5b80604052505050565b60006200010762000067565b9050620001158282620000c5565b919050565b600067ffffffffffffffff82111562000138576200013762000096565b5b620001438262000085565b9050602081019050919050565b60005b838110156200017057808201518184015260208101905062000153565b60008484015250505050565b6000620001936200018d846200011a565b620000fb565b905082815260208101848484011115620001b257620001b162000080565b5b620001bf84828562000150565b509392505050565b600082601f830112620001df57620001de6200007b565b5b8151620001f18482602086016200017c565b91505092915050565b6000806040838503121562000214576200021362000071565b5b600083015167ffffffffffffffff81111562000235576200023462000076565b5b6200024385828601620001c7565b925050602083015167ffffffffffffffff81111562000267576200026662000076565b5b6200027585828601620001c7565b9150509250929050565b600081519050919050565b7f4e487b7100000000000000000000000000000000000000000000000000000000600052602260045260246000fd5b60006002820490506001821680620002d257607f821691505b602082108103620002e857620002e76200028a565b5b50919050565b60008190508160005260206000209050919050565b60006020601f8301049050919050565b600082821b905092915050565b600060088302620003527fffffffffffffffffffffffffffffffffffffffffffffffffffffffffffffffff8262000313565b6200035e868362000313565b95508019841693508086168417925050509392505050565b6000819050919050565b6000819050919050565b6000620003ab620003a56200039f8462000376565b62000380565b62000376565b9050919050565b6000819050919050565b620003c7836200038a565b620003df620003d682620003b2565b84845462000320565b825550505050565b600090565b620003f6620003e7565b62000403818484620003bc565b505050565b5b818110156200042b576200041f600082620003ec565b60018101905062000409565b5050565b601f8211156200047a576200044481620002ee565b6200044f8462000303565b810160208510156200045f578190505b620004776200046e8562000303565b83018262000408565b50505b505050565b600082821c905092915050565b60006200049f600019846008026200047f565b1980831691505092915050565b6000620004ba83836200048c565b9150826002028217905092915050565b620004d5826200027f565b67ffffffffffffffff811115620004f157620004f062000096565b5b620004fd8254620002b9565b6200050a8282856200042f565b600060209050601f8311600181146200054257600084156200052d578287015190505b620005398582620004ac565b865550620005a9565b601f1984166200055286620002ee565b60005b828110156200057c5784890151825560018201915060208501945060208101905062000555565b868310156200059c578489015162000598601f8916826200048c565b8355505b6001600288020188555050505b505050505050565b610f0c80620005c16000396000f3fe608060405234801561001057600080fd5b506004361061009e5760003560e01c806370a082311161006657806370a082311461015d57806395d89b411461018d578063a9059cbb146101ab578063b23e47b3146101db578063dd62ed3e146101f75761009e565b806306fdde03146100a3578063095ea7b3146100c157806318160ddd146100f157806323b872dd1461010f578063313ce5671461013f575b600080fd5b6100ab610227565b6040516100b89190610b60565b60405180910390f35b6100db60048036038101906100d69190610c1b565b6102b9565b6040516100e89190610c76565b60405180910390f35b6100f96102dc565b6040516101069190610ca0565b60405180910390f35b61012960048036038101906101249190610cbb565b6102e6565b6040516101369190610c76565b60405180910390f35b610147610315565b6040516101549190610d2a565b60405180910390f35b61017760048036038101906101729190610d45565b61031e565b6040516101849190610ca0565b60405180910390f35b610195610366565b6040516101a29190610b60565b60405180910390f35b6101c560048036038101906101c09190610c1b565b6103f8565b6040516101d29190610c76565b60405180910390f35b6101f560048036038101906101f09190610c1b565b61041b565b005b610211600480360381019061020c9190610d72565b610429565b60405161021e9190610ca0565b60405180910390f35b60606003805461023690610de1565b80601f016020809104026020016040519081016040528092919081815260200182805461026290610de1565b80156102af5780601f10610284576101008083540402835291602001916102af565b820191906000526020600020905b81548152906001019060200180831161029257829003601f168201915b5050505050905090565b6000806102c46104b0565b90506102d18185856104b8565b600191505092915050565b6000600254905090565b6000806102f16104b0565b90506102fe8582856104ca565b61030985858561055e565b60019150509392505050565b60006012905090565b60008060008373ffffffffffffffffffffffffffffffffffffffff1673ffffffffffffffffffffffffffffffffffffffff168152602001908152602001600020549050919050565b60606004805461037590610de1565b80601f01602080910402602001604051908101604052809291908181526020018280546103a190610de1565b80156103ee5780601f106103c3576101008083540402835291602001916103ee565b820191906000526020600020905b8154815290600101906020018083116103d157829003601f168201915b5050505050905090565b6000806104036104b0565b905061041081858561055e565b600191505092915050565b6104258282610652565b5050565b6000600160008473ffffffffffffffffffffffffffffffffffffffff1673ffffffffffffffffffffffffffffffffffffffff16815260200190815260200160002060008373ffffffffffffffffffffffffffffffffffffffff1673ffffffffffffffffffffffffffffffffffffffff16815260200190815260200160002054905092915050565b600033905090565b6104c583838360016106d4565b505050565b60006104d68484610429565b90507fffffffffffffffffffffffffffffffffffffffffffffffffffffffffffffffff81146105585781811015610548578281836040517ffb8f41b200000000000000000000000000000000000000000000000000000000815260040161053f93929190610e21565b60405180910390fd5b610557848484840360006106d4565b5b50505050565b600073ffffffffffffffffffffffffffffffffffffffff168373ffffffffffffffffffffffffffffffffffffffff16036105d05760006040517f96c6fd1e0000000000000000000000000000000000000000000000000000000081526004016105c79190610e58565b60405180910390fd5b600073ffffffffffffffffffffffffffffffffffffffff168273ffffffffffffffffffffffffffffffffffffffff16036106425760006040517fec442f050000000000000000000000000000000000000000000000000000000081526004016106399190610e58565b60405180910390fd5b61064d8383836108ab565b505050565b600073ffffffffffffffffffffffffffffffffffffffff168273ffffffffffffffffffffffffffffffffffffffff16036106c45760006040517fec442f050000000000000000000000000000000000000000000000000000000081526004016106bb9190610e58565b60405180910390fd5b6106d0600083836108ab565b5050565b600073ffffffffffffffffffffffffffffffffffffffff168473ffffffffffffffffffffffffffffffffffffffff16036107465760006040517fe602df0500000000000000000000000000000000000000000000000000000000815260040161073d9190610e58565b60405180910390fd5b600073ffffffffffffffffffffffffffffffffffffffff168373ffffffffffffffffffffffffffffffffffffffff16036107b85760006040517f94280d620000000000000000000000000000000000000000000000000000000081526004016107af9190610e58565b60405180910390fd5b81600160008673ffffffffffffffffffffffffffffffffffffffff1673ffffffffffffffffffffffffffffffffffffffff16815260200190815260200160002060008573ffffffffffffffffffffffffffffffffffffffff1673ffffffffffffffffffffffffffffffffffffffff1681526020019081526020016000208190555080156108a5578273ffffffffffffffffffffffffffffffffffffffff168473ffffffffffffffffffffffffffffffffffffffff167f8c5be1e5ebec7d5bd14f71427d1e84f3dd0314c0f7b2291e5b200ac8c7c3b9258460405161089c9190610ca0565b60405180910390a35b50505050565b600073ffffffffffffffffffffffffffffffffffffffff168373ffffffffffffffffffffffffffffffffffffffff16036108fd5780600260008282546108f19190610ea2565b925050819055506109d0565b60008060008573ffffffffffffffffffffffffffffffffffffffff1673ffffffffffffffffffffffffffffffffffffffff16815260200190815260200160002054905081811015610989578381836040517fe450d38c00000000000000000000000000000000000000000000000000000000815260040161098093929190610e21565b60405180910390fd5b8181036000808673ffffffffffffffffffffffffffffffffffffffff1673ffffffffffffffffffffffffffffffffffffffff16815260200190815260200160002081905550505b600073ffffffffffffffffffffffffffffffffffffffff168273ffffffffffffffffffffffffffffffffffffffff1603610a195780600260008282540392505081905550610a66565b806000808473ffffffffffffffffffffffffffffffffffffffff1673ffffffffffffffffffffffffffffffffffffffff168152602001908152602001600020600082825401925050819055505b8173ffffffffffffffffffffffffffffffffffffffff168373ffffffffffffffffffffffffffffffffffffffff167fddf252ad1be2c89b69c2b068fc378daa952ba7f163c4a11628f55a4df523b3ef83604051610ac39190610ca0565b60405180910390a3505050565b600081519050919050565b600082825260208201905092915050565b60005b83811015610b0a578082015181840152602081019050610aef565b60008484015250505050565b6000601f19601f8301169050919050565b6000610b3282610ad0565b610b3c8185610adb565b9350610b4c818560208601610aec565b610b5581610b16565b840191505092915050565b60006020820190508181036000830152610b7a8184610b27565b905092915050565b600080fd5b600073ffffffffffffffffffffffffffffffffffffffff82169050919050565b6000610bb282610b87565b9050919050565b610bc281610ba7565b8114610bcd57600080fd5b50565b600081359050610bdf81610bb9565b92915050565b6000819050919050565b610bf881610be5565b8114610c0357600080fd5b50565b600081359050610c1581610bef565b92915050565b60008060408385031215610c3257610c31610b82565b5b6000610c4085828601610bd0565b9250506020610c5185828601610c06565b9150509250929050565b60008115159050919050565b610c7081610c5b565b82525050565b6000602082019050610c8b6000830184610c67565b92915050565b610c9a81610be5565b82525050565b6000602082019050610cb56000830184610c91565b92915050565b600080600060608486031215610cd457610cd3610b82565b5b6000610ce286828701610bd0565b9350506020610cf386828701610bd0565b9250506040610d0486828701610c06565b9150509250925092565b600060ff82169050919050565b610d2481610d0e565b82525050565b6000602082019050610d3f6000830184610d1b565b92915050565b600060208284031215610d5b57610d5a610b82565b5b6000610d6984828501610bd0565b91505092915050565b60008060408385031215610d8957610d88610b82565b5b6000610d9785828601610bd0565b9250506020610da885828601610bd0565b9150509250929050565b7f4e487b7100000000000000000000000000000000000000000000000000000000600052602260045260246000fd5b60006002820490506001821680610df957607f821691505b602082108103610e0c57610e0b610db2565b5b50919050565b610e1b81610ba7565b82525050565b6000606082019050610e366000830186610e12565b610e436020830185610c91565b610e506040830184610c91565b949350505050565b6000602082019050610e6d6000830184610e12565b92915050565b7f4e487b7100000000000000000000000000000000000000000000000000000000600052601160045260246000fd5b6000610ead82610be5565b9150610eb883610be5565b9250828201905080821115610ed057610ecf610e73565b5b9291505056fea264697066735822122037a95e31904a5cd1af92369fbdf6a4da29d221317dbfea1be3b0636283d6dc4864736f6c6343000814003360806040523480156200001157600080fd5b506040516200252f3803806200252f8339818101604052810190620000379190620001fa565b818181600090816200004a9190620004ca565b5080600190816200005c9190620004ca565b5050505050620005b1565b6000604051905090565b600080fd5b600080fd5b600080fd5b600080fd5b6000601f19601f8301169050919050565b7f4e487b7100000000000000000000000000000000000000000000000000000000600052604160045260246000fd5b620000d08262000085565b810181811067ffffffffffffffff82111715620000f257620000f162000096565b5b80604052505050565b60006200010762000067565b9050620001158282620000c5565b919050565b600067ffffffffffffffff82111562000138576200013762000096565b5b620001438262000085565b9050602081019050919050565b60005b838110156200017057808201518184015260208101905062000153565b60008484015250505050565b6000620001936200018d846200011a565b620000fb565b905082815260208101848484011115620001b257620001b162000080565b5b620001bf84828562000150565b509392505050565b600082601f830112620001df57620001de6200007b565b5b8151620001f18482602086016200017c565b91505092915050565b6000806040838503121562000214576200021362000071565b5b600083015167ffffffffffffffff81111562000235576200023462000076565b5b6200024385828601620001c7565b925050602083015167ffffffffffffffff81111562000267576200026662000076565b5b6200027585828601620001c7565b9150509250929050565b600081519050919050565b7f4e487b7100000000000000000000000000000000000000000000000000000000600052602260045260246000fd5b60006002820490506001821680620002d257607f821691505b602082108103620002e857620002e76200028a565b5b50919050565b60008190508160005260206000209050919050565b60006020601f8301049050919050565b600082821b905092915050565b600060088302620003527fffffffffffffffffffffffffffffffffffffffffffffffffffffffffffffffff8262000313565b6200035e868362000313565b95508019841693508086168417925050509392505050565b6000819050919050565b6000819050919050565b6000620003ab620003a56200039f8462000376565b62000380565b62000376565b9050919050565b6000819050919050565b620003c7836200038a565b620003df620003d682620003b2565b84845462000320565b825550505050565b600090565b620003f6620003e7565b62000403818484620003bc565b505050565b5b818110156200042b576200041f600082620003ec565b60018101905062000409565b5050565b601f8211156200047a576200044481620002ee565b6200044f8462000303565b810160208510156200045f578190505b620004776200046e8562000303565b83018262000408565b50505b505050565b600082821c905092915050565b60006200049f600019846008026200047f565b1980831691505092915050565b6000620004ba83836200048c565b9150826002028217905092915050565b620004d5826200027f565b67ffffffffffffffff811115620004f157620004f062000096565b5b620004fd8254620002b9565b6200050a8282856200042f565b600060209050601f8311600181146200054257600084156200052d578287015190505b620005398582620004ac565b865550620005a9565b601f1984166200055286620002ee565b60005b828110156200057c5784890151825560018201915060208501945060208101905062000555565b868310156200059c578489015162000598601f8916826200048c565b8355505b6001600288020188555050505b505050505050565b611f6e80620005c16000396000f3fe608060405234801561001057600080fd5b50600436106100ea5760003560e01c806370a082311161008c578063a5864b5111610066578063a5864b511461025b578063b88d4fde14610277578063c87b56dd14610293578063e985e9c5146102c3576100ea565b806370a08231146101f157806395d89b4114610221578063a22cb4651461023f576100ea565b8063095ea7b3116100c8578063095ea7b31461016d57806323b872dd1461018957806342842e0e146101a55780636352211e146101c1576100ea565b806301ffc9a7146100ef57806306fdde031461011f578063081812fc1461013d575b600080fd5b610109600480360381019061010491906117b8565b6102f3565b6040516101169190611800565b60405180910390f35b610127610354565b60405161013491906118ab565b60405180910390f35b61015760048036038101906101529190611903565b6103e6565b6040516101649190611971565b60405180910390f35b610187600480360381019061018291906119b8565b610402565b005b6101a3600480360381019061019e91906119f8565b610418565b005b6101bf60048036038101906101ba91906119f8565b61051a565b005b6101db60048036038101906101d69190611903565b61053a565b6040516101e89190611971565b60405180910390f35b61020b60048036038101906102069190611a4b565b61054c565b6040516102189190611a87565b60405180910390f35b610229610606565b60405161023691906118ab565b60405180910390f35b61025960048036038101906102549190611ace565b610698565b005b610275600480360381019061027091906119b8565b6106ae565b005b610291600480360381019061028c9190611c43565b6106c2565b005b6102ad60048036038101906102a89190611903565b6106df565b6040516102ba91906118ab565b60405180910390f35b6102dd60048036038101906102d89190611cc6565b6107f2565b6040516102ea9190611800565b60405180910390f35b6000634906490660e01b7bffffffffffffffffffffffffffffffffffffffffffffffffffffffff1916827bffffffffffffffffffffffffffffffffffffffffffffffffffffffff1916148061034d575061034c82610886565b5b9050919050565b60606000805461036390611d35565b80601f016020809104026020016040519081016040528092919081815260200182805461038f90611d35565b80156103dc5780601f106103b1576101008083540402835291602001916103dc565b820191906000526020600020905b8154815290600101906020018083116103bf57829003601f168201915b5050505050905090565b60006103f182610968565b506103fb826109f0565b9050919050565b610414828261040f610a2d565b610a35565b5050565b600073ffffffffffffffffffffffffffffffffffffffff168273ffffffffffffffffffffffffffffffffffffffff160361048a5760006040517f64a0ae920000000000000000000000000000000000000000000000000000000081526004016104819190611971565b60405180910390fd5b600061049e8383610499610a2d565b610a47565b90508373ffffffffffffffffffffffffffffffffffffffff168173ffffffffffffffffffffffffffffffffffffffff1614610514578382826040517f64283d7b00000000000000000000000000000000000000000000000000000000815260040161050b93929190611d66565b60405180910390fd5b50505050565b610535838383604051806020016040528060008152506106c2565b505050565b600061054582610968565b9050919050565b60008073ffffffffffffffffffffffffffffffffffffffff168273ffffffffffffffffffffffffffffffffffffffff16036105bf5760006040517f89c62b640000000000000000000000000000000000000000000000000000000081526004016105b69190611971565b60405180910390fd5b600360008373ffffffffffffffffffffffffffffffffffffffff1673ffffffffffffffffffffffffffffffffffffffff168152602001908152602001600020549050919050565b60606001805461061590611d35565b80601f016020809104026020016040519081016040528092919081815260200182805461064190611d35565b801561068e5780601f106106635761010080835404028352916020019161068e565b820191906000526020600020905b81548152906001019060200180831161067157829003601f168201915b5050505050905090565b6106aa6106a3610a2d565b8383610c61565b5050565b60008190506106bd8382610dd0565b505050565b6106cd848484610418565b6106d984848484610dee565b50505050565b60606106ea82610968565b50600060066000848152602001908152602001600020805461070b90611d35565b80601f016020809104026020016040519081016040528092919081815260200182805461073790611d35565b80156107845780601f1061075957610100808354040283529160200191610784565b820191906000526020600020905b81548152906001019060200180831161076757829003601f168201915b505050505090506000610795610fa5565b905060008151036107aa5781925050506107ed565b6000825111156107df5780826040516020016107c7929190611dd9565b604051602081830303815290604052925050506107ed565b6107e884610fbc565b925050505b919050565b6000600560008473ffffffffffffffffffffffffffffffffffffffff1673ffffffffffffffffffffffffffffffffffffffff16815260200190815260200160002060008373ffffffffffffffffffffffffffffffffffffffff1673ffffffffffffffffffffffffffffffffffffffff16815260200190815260200160002060009054906101000a900460ff16905092915050565b60007f80ac58cd000000000000000000000000000000000000000000000000000000007bffffffffffffffffffffffffffffffffffffffffffffffffffffffff1916827bffffffffffffffffffffffffffffffffffffffffffffffffffffffff1916148061095157507f5b5e139f000000000000000000000000000000000000000000000000000000007bffffffffffffffffffffffffffffffffffffffffffffffffffffffff1916827bffffffffffffffffffffffffffffffffffffffffffffffffffffffff1916145b80610961575061096082611025565b5b9050919050565b6000806109748361108f565b9050600073ffffffffffffffffffffffffffffffffffffffff168173ffffffffffffffffffffffffffffffffffffffff16036109e757826040517f7e2732890000000000000000000000000000000000000000000000000000000081526004016109de9190611a87565b60405180910390fd5b80915050919050565b60006004600083815260200190815260200160002060009054906101000a900473ffffffffffffffffffffffffffffffffffffffff169050919050565b600033905090565b610a4283838360016110cc565b505050565b600080610a538461108f565b9050600073ffffffffffffffffffffffffffffffffffffffff168373ffffffffffffffffffffffffffffffffffffffff1614610a9557610a94818486611291565b5b600073ffffffffffffffffffffffffffffffffffffffff168173ffffffffffffffffffffffffffffffffffffffff1614610b2657610ad76000856000806110cc565b6001600360008373ffffffffffffffffffffffffffffffffffffffff1673ffffffffffffffffffffffffffffffffffffffff168152602001908152602001600020600082825403925050819055505b600073ffffffffffffffffffffffffffffffffffffffff168573ffffffffffffffffffffffffffffffffffffffff1614610ba9576001600360008773ffffffffffffffffffffffffffffffffffffffff1673ffffffffffffffffffffffffffffffffffffffff168152602001908152602001600020600082825401925050819055505b846002600086815260200190815260200160002060006101000a81548173ffffffffffffffffffffffffffffffffffffffff021916908373ffffffffffffffffffffffffffffffffffffffff160217905550838573ffffffffffffffffffffffffffffffffffffffff168273ffffffffffffffffffffffffffffffffffffffff167fddf252ad1be2c89b69c2b068fc378daa952ba7f163c4a11628f55a4df523b3ef60405160405180910390a4809150509392505050565b600073ffffffffffffffffffffffffffffffffffffffff168273ffffffffffffffffffffffffffffffffffffffff1603610cd257816040517f5b08ba18000000000000000000000000000000000000000000000000000000008152600401610cc99190611971565b60405180910390fd5b80600560008573ffffffffffffffffffffffffffffffffffffffff1673ffffffffffffffffffffffffffffffffffffffff16815260200190815260200160002060008473ffffffffffffffffffffffffffffffffffffffff1673ffffffffffffffffffffffffffffffffffffffff16815260200190815260200160002060006101000a81548160ff0219169083151502179055508173ffffffffffffffffffffffffffffffffffffffff168373ffffffffffffffffffffffffffffffffffffffff167f17307eab39ab6107e8899845ad3d59bd9653f200f220920489ca2b5937696c3183604051610dc39190611800565b60405180910390a3505050565b610dea828260405180602001604052806000815250611355565b5050565b60008373ffffffffffffffffffffffffffffffffffffffff163b1115610f9f578273ffffffffffffffffffffffffffffffffffffffff1663150b7a02610e32610a2d565b8685856040518563ffffffff1660e01b8152600401610e549493929190611e52565b6020604051808303816000875af1925050508015610e9057506040513d601f19601f82011682018060405250810190610e8d9190611eb3565b60015b610f14573d8060008114610ec0576040519150601f19603f3d011682016040523d82523d6000602084013e610ec5565b606091505b506000815103610f0c57836040517f64a0ae92000000000000000000000000000000000000000000000000000000008152600401610f039190611971565b60405180910390fd5b805181602001fd5b63150b7a0260e01b7bffffffffffffffffffffffffffffffffffffffffffffffffffffffff1916817bffffffffffffffffffffffffffffffffffffffffffffffffffffffff191614610f9d57836040517f64a0ae92000000000000000000000000000000000000000000000000000000008152600401610f949190611971565b60405180910390fd5b505b50505050565b606060405180602001604052806000815250905090565b6060610fc782610968565b506000610fd2610fa5565b90506000815111610ff2576040518060200160405280600081525061101d565b80610ffc84611371565b60405160200161100d929190611dd9565b6040516020818303038152906040525b915050919050565b60007f01ffc9a7000000000000000000000000000000000000000000000000000000007bffffffffffffffffffffffffffffffffffffffffffffffffffffffff1916827bffffffffffffffffffffffffffffffffffffffffffffffffffffffff1916149050919050565b60006002600083815260200190815260200160002060009054906101000a900473ffffffffffffffffffffffffffffffffffffffff169050919050565b80806111055750600073ffffffffffffffffffffffffffffffffffffffff168273ffffffffffffffffffffffffffffffffffffffff1614155b1561123957600061111584610968565b9050600073ffffffffffffffffffffffffffffffffffffffff168373ffffffffffffffffffffffffffffffffffffffff161415801561118057508273ffffffffffffffffffffffffffffffffffffffff168173ffffffffffffffffffffffffffffffffffffffff1614155b8015611193575061119181846107f2565b155b156111d557826040517fa9fbf51f0000000000000000000000000000000000000000000000000000000081526004016111cc9190611971565b60405180910390fd5b811561123757838573ffffffffffffffffffffffffffffffffffffffff168273ffffffffffffffffffffffffffffffffffffffff167f8c5be1e5ebec7d5bd14f71427d1e84f3dd0314c0f7b2291e5b200ac8c7c3b92560405160405180910390a45b505b836004600085815260200190815260200160002060006101000a81548173ffffffffffffffffffffffffffffffffffffffff021916908373ffffffffffffffffffffffffffffffffffffffff16021790555050505050565b61129c83838361143f565b61135057600073ffffffffffffffffffffffffffffffffffffffff168373ffffffffffffffffffffffffffffffffffffffff160361131157806040517f7e2732890000000000000000000000000000000000000000000000000000000081526004016113089190611a87565b60405180910390fd5b81816040517f177e802f000000000000000000000000000000000000000000000000000000008152600401611347929190611ee0565b60405180910390fd5b505050565b61135f8383611500565b61136c6000848484610dee565b505050565b606060006001611380846115f9565b01905060008167ffffffffffffffff81111561139f5761139e611b18565b5b6040519080825280601f01601f1916602001820160405280156113d15781602001600182028036833780820191505090505b509050600082602001820190505b600115611434578080600190039150507f3031323334353637383961626364656600000000000000000000000000000000600a86061a8153600a858161142857611427611f09565b5b049450600085036113df575b819350505050919050565b60008073ffffffffffffffffffffffffffffffffffffffff168373ffffffffffffffffffffffffffffffffffffffff16141580156114f757508273ffffffffffffffffffffffffffffffffffffffff168473ffffffffffffffffffffffffffffffffffffffff1614806114b857506114b784846107f2565b5b806114f657508273ffffffffffffffffffffffffffffffffffffffff166114de836109f0565b73ffffffffffffffffffffffffffffffffffffffff16145b5b90509392505050565b600073ffffffffffffffffffffffffffffffffffffffff168273ffffffffffffffffffffffffffffffffffffffff16036115725760006040517f64a0ae920000000000000000000000000000000000000000000000000000000081526004016115699190611971565b60405180910390fd5b600061158083836000610a47565b9050600073ffffffffffffffffffffffffffffffffffffffff168173ffffffffffffffffffffffffffffffffffffffff16146115f45760006040517f73c6ac6e0000000000000000000000000000000000000000000000000000000081526004016115eb9190611971565b60405180910390fd5b505050565b600080600090507a184f03e93ff9f4daa797ed6e38ed64bf6a1f0100000000000000008310611657577a184f03e93ff9f4daa797ed6e38ed64bf6a1f010000000000000000838161164d5761164c611f09565b5b0492506040810190505b6d04ee2d6d415b85acef81000000008310611694576d04ee2d6d415b85acef8100000000838161168a57611689611f09565b5b0492506020810190505b662386f26fc1000083106116c357662386f26fc1000083816116b9576116b8611f09565b5b0492506010810190505b6305f5e10083106116ec576305f5e10083816116e2576116e1611f09565b5b0492506008810190505b612710831061171157612710838161170757611706611f09565b5b0492506004810190505b60648310611734576064838161172a57611729611f09565b5b0492506002810190505b600a8310611743576001810190505b80915050919050565b6000604051905090565b600080fd5b600080fd5b60007fffffffff0000000000000000000000000000000000000000000000000000000082169050919050565b61179581611760565b81146117a057600080fd5b50565b6000813590506117b28161178c565b92915050565b6000602082840312156117ce576117cd611756565b5b60006117dc848285016117a3565b91505092915050565b60008115159050919050565b6117fa816117e5565b82525050565b600060208201905061181560008301846117f1565b92915050565b600081519050919050565b600082825260208201905092915050565b60005b8381101561185557808201518184015260208101905061183a565b60008484015250505050565b6000601f19601f8301169050919050565b600061187d8261181b565b6118878185611826565b9350611897818560208601611837565b6118a081611861565b840191505092915050565b600060208201905081810360008301526118c58184611872565b905092915050565b6000819050919050565b6118e0816118cd565b81146118eb57600080fd5b50565b6000813590506118fd816118d7565b92915050565b60006020828403121561191957611918611756565b5b6000611927848285016118ee565b91505092915050565b600073ffffffffffffffffffffffffffffffffffffffff82169050919050565b600061195b82611930565b9050919050565b61196b81611950565b82525050565b60006020820190506119866000830184611962565b92915050565b61199581611950565b81146119a057600080fd5b50565b6000813590506119b28161198c565b92915050565b600080604083850312156119cf576119ce611756565b5b60006119dd858286016119a3565b92505060206119ee858286016118ee565b9150509250929050565b600080600060608486031215611a1157611a10611756565b5b6000611a1f868287016119a3565b9350506020611a30868287016119a3565b9250506040611a41868287016118ee565b9150509250925092565b600060208284031215611a6157611a60611756565b5b6000611a6f848285016119a3565b91505092915050565b611a81816118cd565b82525050565b6000602082019050611a9c6000830184611a78565b92915050565b611aab816117e5565b8114611ab657600080fd5b50565b600081359050611ac881611aa2565b92915050565b60008060408385031215611ae557611ae4611756565b5b6000611af3858286016119a3565b9250506020611b0485828601611ab9565b9150509250929050565b600080fd5b600080fd5b7f4e487b7100000000000000000000000000000000000000000000000000000000600052604160045260246000fd5b611b5082611861565b810181811067ffffffffffffffff82111715611b6f57611b6e611b18565b5b80604052505050565b6000611b8261174c565b9050611b8e8282611b47565b919050565b600067ffffffffffffffff821115611bae57611bad611b18565b5b611bb782611861565b9050602081019050919050565b82818337600083830152505050565b6000611be6611be184611b93565b611b78565b905082815260208101848484011115611c0257611c01611b13565b5b611c0d848285611bc4565b509392505050565b600082601f830112611c2a57611c29611b0e565b5b8135611c3a848260208601611bd3565b91505092915050565b60008060008060808587031215611c5d57611c5c611756565b5b6000611c6b878288016119a3565b9450506020611c7c878288016119a3565b9350506040611c8d878288016118ee565b925050606085013567ffffffffffffffff811115611cae57611cad61175b565b5b611cba87828801611c15565b91505092959194509250565b60008060408385031215611cdd57611cdc611756565b5b6000611ceb858286016119a3565b9250506020611cfc858286016119a3565b9150509250929050565b7f4e487b7100000000000000000000000000000000000000000000000000000000600052602260045260246000fd5b60006002820490506001821680611d4d57607f821691505b602082108103611d6057611d5f611d06565b5b50919050565b6000606082019050611d7b6000830186611962565b611d886020830185611a78565b611d956040830184611962565b949350505050565b600081905092915050565b6000611db38261181b565b611dbd8185611d9d565b9350611dcd818560208601611837565b80840191505092915050565b6000611de58285611da8565b9150611df18284611da8565b91508190509392505050565b600081519050919050565b600082825260208201905092915050565b6000611e2482611dfd565b611e2e8185611e08565b9350611e3e818560208601611837565b611e4781611861565b840191505092915050565b6000608082019050611e676000830187611962565b611e746020830186611962565b611e816040830185611a78565b8181036060830152611e938184611e19565b905095945050505050565b600081519050611ead8161178c565b92915050565b600060208284031215611ec957611ec8611756565b5b6000611ed784828501611e9e565b91505092915050565b6000604082019050611ef56000830185611962565b611f026020830184611a78565b9392505050565b7f4e487b7100000000000000000000000000000000000000000000000000000000600052601260045260246000fdfea26469706673582212204c70b17c25f45a6cc4d97ffdc8bb582b9613bd03c320085f1d6e2f0095e9174964736f6c63430008140033",
  "linkReferences": {},
  "deployedLinkReferences": {}
}